{
  "contractName": "Coinflip",
  "abi": [
    {
      "inputs": [],
      "stateMutability": "nonpayable",
      "type": "constructor"
    },
    {
      "anonymous": false,
      "inputs": [
        {
          "indexed": false,
          "internalType": "string",
          "name": "description",
          "type": "string"
        }
      ],
      "name": "LogNewProvableQuery",
      "type": "event"
    },
    {
      "anonymous": false,
      "inputs": [
        {
          "indexed": false,
          "internalType": "address",
          "name": "sender",
          "type": "address"
        },
        {
          "indexed": false,
          "internalType": "uint256",
          "name": "result",
          "type": "uint256"
        }
      ],
      "name": "coinFlipped",
      "type": "event"
    },
    {
      "anonymous": false,
      "inputs": [
        {
          "indexed": false,
          "internalType": "uint256",
          "name": "randomNumber",
          "type": "uint256"
        }
      ],
      "name": "generatedRandomNumber",
      "type": "event"
    },
    {
      "inputs": [
        {
          "internalType": "address",
          "name": "",
          "type": "address"
        }
      ],
      "name": "balance",
      "outputs": [
        {
          "internalType": "uint256",
          "name": "",
          "type": "uint256"
        }
      ],
      "stateMutability": "view",
      "type": "function",
      "constant": true
    },
    {
      "inputs": [
        {
          "internalType": "address",
          "name": "",
          "type": "address"
        }
      ],
      "name": "isPlaying",
      "outputs": [
        {
          "internalType": "bool",
          "name": "",
          "type": "bool"
        }
      ],
      "stateMutability": "view",
      "type": "function",
      "constant": true
    },
    {
      "inputs": [],
      "name": "latestNumber",
      "outputs": [
        {
          "internalType": "uint256",
          "name": "",
          "type": "uint256"
        }
      ],
      "stateMutability": "view",
      "type": "function",
      "constant": true
    },
    {
      "inputs": [],
      "name": "owner",
      "outputs": [
        {
          "internalType": "address",
          "name": "",
          "type": "address"
        }
      ],
      "stateMutability": "view",
      "type": "function",
      "constant": true
    },
    {
      "inputs": [
        {
          "internalType": "address",
          "name": "_address",
          "type": "address"
        }
      ],
      "name": "maxCost",
      "outputs": [
        {
          "internalType": "uint256",
          "name": "",
          "type": "uint256"
        }
      ],
      "stateMutability": "view",
      "type": "function",
      "constant": true
    },
    {
      "inputs": [
        {
          "internalType": "bytes32",
          "name": "_myid",
          "type": "bytes32"
        },
        {
          "internalType": "string",
          "name": "_result",
          "type": "string"
        }
      ],
      "name": "__callback",
      "outputs": [],
      "stateMutability": "nonpayable",
      "type": "function"
    },
    {
      "inputs": [
        {
          "internalType": "bytes32",
          "name": "_queryID",
          "type": "bytes32"
        },
        {
          "internalType": "string",
          "name": "_result",
          "type": "string"
        },
        {
          "internalType": "bytes",
          "name": "_proof",
          "type": "bytes"
        }
      ],
      "name": "__callback",
      "outputs": [],
      "stateMutability": "nonpayable",
      "type": "function"
    },
    {
      "inputs": [],
      "name": "update",
      "outputs": [],
      "stateMutability": "payable",
      "type": "function",
      "payable": true
    },
    {
      "inputs": [],
      "name": "gamble",
      "outputs": [
        {
          "internalType": "uint256",
          "name": "",
          "type": "uint256"
        }
      ],
      "stateMutability": "payable",
      "type": "function",
      "payable": true
    },
    {
      "inputs": [],
      "name": "withdraw",
      "outputs": [],
      "stateMutability": "payable",
      "type": "function",
      "payable": true
    },
    {
      "inputs": [],
      "name": "deposit",
      "outputs": [],
      "stateMutability": "payable",
      "type": "function",
      "payable": true
    },
    {
      "inputs": [
        {
          "internalType": "address",
          "name": "_address",
          "type": "address"
        }
      ],
      "name": "getUserBalance",
      "outputs": [
        {
          "internalType": "uint256",
          "name": "",
          "type": "uint256"
        }
      ],
      "stateMutability": "view",
      "type": "function",
      "constant": true
    },
    {
      "inputs": [],
      "name": "close",
      "outputs": [],
      "stateMutability": "nonpayable",
      "type": "function"
    }
  ],
  "bytecode": "0x60806040523480156200001157600080fd5b50336000806101000a81548173ffffffffffffffffffffffffffffffffffffffff021916908373ffffffffffffffffffffffffffffffffffffffff160217905550620000626200006860201b60201c565b62001f91565b6000809050600062030d4090506200008982600183620000da60201b60201c565b507fc4dc360d0a9c0677a3379ae0a3d81e887f761e65fdf3d7e00859d1bcd3c4738960405180806020018281038252603281526020018062004cc76032913960400191505060405180910390a15050565b60008083118015620000ed575060208311155b620000f757600080fd5b600a84029350606060016040519080825280601f01601f191660200182016040528015620001345781602001600182028038833980820191505090505b5090508360f81b816000815181106200014957fe5b60200101907effffffffffffffffffffffffffffffffffffffffffffffffffffffffffffff1916908160001a905350606060206040519080825280601f01601f191660200182016040528015620001af5781602001600182028038833980820191505090505b509050606060206040519080825280601f01601f191660200182016040528015620001e95781602001600182028038833980820191505090505b5090506000620001fe620006ad60201b60201c565b905060208352424118600143034018602084015260208252806020830152606060206040519080825280601f01601f191660200182016040528015620002535781602001600182028038833980820191505090505b509050886020820152606060086040519080825280601f01601f191660200182016040528015620002935781602001600182028038833980820191505090505b509050620002ae8260186008846000620009e960201b60201c565b50620002b962001ea0565b60405180608001604052808781526020018881526020018681526020018481525090506000620003266040518060400160405280600681526020017f72616e646f6d0000000000000000000000000000000000000000000000000000815250838c62000a4b60201b60201c565b9050606060086040519080825280601f01601f1916602001820160405280156200035f5781602001600182028038833980820191505090505b50905060208401517f0100000000000000000000000000000000000000000000000000000000000000810460278301537e01000000000000000000000000000000000000000000000000000000000000810460268301537d010000000000000000000000000000000000000000000000000000000000810460258301537c0100000000000000000000000000000000000000000000000000000000810460248301537b01000000000000000000000000000000000000000000000000000000810460238301537a0100000000000000000000000000000000000000000000000000008104602283015379010000000000000000000000000000000000000000000000000081046021830153780100000000000000000000000000000000000000000000000081046020830153506200069a828285600160048110620004a057fe5b6020020151600287600060048110620004b557fe5b60200201516040518082805190602001908083835b60208310620004ef5780518252602082019150602081019050602083039250620004ca565b6001836020036101000a038019825116818451168082178552505050505050905001915050602060405180830381855afa15801562000532573d6000803e3d6000fd5b5050506040513d60208110156200054857600080fd5b8101908080519060200190929190505050876002600481106200056757fe5b60200201516040516020018085805190602001908083835b60208310620005a457805182526020820191506020810190506020830392506200057f565b6001836020036101000a03801982511681845116808217855250505050505090500184805190602001908083835b60208310620005f75780518252602082019150602081019050602083039250620005d2565b6001836020036101000a03801982511681845116808217855250505050505090500183815260200182805190602001908083835b602083106200065057805182526020820191506020810190506020830392506200062b565b6001836020036101000a0380198251168184511680821785525050505050509050019450505050506040516020818303038152906040528051906020012062000de560201b60201c565b8199505050505050505050509392505050565b60008073ffffffffffffffffffffffffffffffffffffffff16600260009054906101000a900473ffffffffffffffffffffffffffffffffffffffff1673ffffffffffffffffffffffffffffffffffffffff1614806200073e575060006200073c600260009054906101000a900473ffffffffffffffffffffffffffffffffffffffff1662000e0160201b60201c565b145b15620007585762000756600062000e0c60201b60201c565b505b600260009054906101000a900473ffffffffffffffffffffffffffffffffffffffff1673ffffffffffffffffffffffffffffffffffffffff166338cc48316040518163ffffffff1660e01b8152600401602060405180830381600087803b158015620007c357600080fd5b505af1158015620007d8573d6000803e3d6000fd5b505050506040513d6020811015620007ef57600080fd5b810190808051906020019092919050505073ffffffffffffffffffffffffffffffffffffffff16600160009054906101000a900473ffffffffffffffffffffffffffffffffffffffff1673ffffffffffffffffffffffffffffffffffffffff16146200093e57600260009054906101000a900473ffffffffffffffffffffffffffffffffffffffff1673ffffffffffffffffffffffffffffffffffffffff166338cc48316040518163ffffffff1660e01b8152600401602060405180830381600087803b158015620008c057600080fd5b505af1158015620008d5573d6000803e3d6000fd5b505050506040513d6020811015620008ec57600080fd5b8101908080519060200190929190505050600160006101000a81548173ffffffffffffffffffffffffffffffffffffffff021916908373ffffffffffffffffffffffffffffffffffffffff1602179055505b600160009054906101000a900473ffffffffffffffffffffffffffffffffffffffff1673ffffffffffffffffffffffffffffffffffffffff1663abaa5f3e6040518163ffffffff1660e01b815260040160206040518083038186803b158015620009a757600080fd5b505afa158015620009bc573d6000803e3d6000fd5b505050506040513d6020811015620009d357600080fd5b8101908080519060200190929190505050905090565b606060008285019050808451101562000a0157600080fd5b600086602001905060008460200190505b86886020010182101562000a3c578189015180828801525060208201915060208101905062000a12565b85935050505095945050505050565b60008073ffffffffffffffffffffffffffffffffffffffff16600260009054906101000a900473ffffffffffffffffffffffffffffffffffffffff1673ffffffffffffffffffffffffffffffffffffffff16148062000adc5750600062000ada600260009054906101000a900473ffffffffffffffffffffffffffffffffffffffff1662000e0160201b60201c565b145b1562000af65762000af4600062000e0c60201b60201c565b505b600260009054906101000a900473ffffffffffffffffffffffffffffffffffffffff1673ffffffffffffffffffffffffffffffffffffffff166338cc48316040518163ffffffff1660e01b8152600401602060405180830381600087803b15801562000b6157600080fd5b505af115801562000b76573d6000803e3d6000fd5b505050506040513d602081101562000b8d57600080fd5b810190808051906020019092919050505073ffffffffffffffffffffffffffffffffffffffff16600160009054906101000a900473ffffffffffffffffffffffffffffffffffffffff1673ffffffffffffffffffffffffffffffffffffffff161462000cdc57600260009054906101000a900473ffffffffffffffffffffffffffffffffffffffff1673ffffffffffffffffffffffffffffffffffffffff166338cc48316040518163ffffffff1660e01b8152600401602060405180830381600087803b15801562000c5e57600080fd5b505af115801562000c73573d6000803e3d6000fd5b505050506040513d602081101562000c8a57600080fd5b8101908080519060200190929190505050600160006101000a81548173ffffffffffffffffffffffffffffffffffffffff021916908373ffffffffffffffffffffffffffffffffffffffff1602179055505b6060600460405190808252806020026020018201604052801562000d1557816020015b606081526020019060019003908162000cff5790505b5090508360006004811062000d2657fe5b60200201518160008151811062000d3957fe5b60200260200101819052508360016004811062000d5257fe5b60200201518160018151811062000d6557fe5b60200260200101819052508360026004811062000d7e57fe5b60200201518160028151811062000d9157fe5b60200260200101819052508360036004811062000daa57fe5b60200201518160038151811062000dbd57fe5b602002602001018190525062000ddb85828562000e2560201b60201c565b9150509392505050565b8060046000848152602001908152602001600020819055505050565b6000813b9050919050565b600062000e1e620013bd60201b60201c565b9050919050565b60008073ffffffffffffffffffffffffffffffffffffffff16600260009054906101000a900473ffffffffffffffffffffffffffffffffffffffff1673ffffffffffffffffffffffffffffffffffffffff16148062000eb65750600062000eb4600260009054906101000a900473ffffffffffffffffffffffffffffffffffffffff1662000e0160201b60201c565b145b1562000ed05762000ece600062000e0c60201b60201c565b505b600260009054906101000a900473ffffffffffffffffffffffffffffffffffffffff1673ffffffffffffffffffffffffffffffffffffffff166338cc48316040518163ffffffff1660e01b8152600401602060405180830381600087803b15801562000f3b57600080fd5b505af115801562000f50573d6000803e3d6000fd5b505050506040513d602081101562000f6757600080fd5b810190808051906020019092919050505073ffffffffffffffffffffffffffffffffffffffff16600160009054906101000a900473ffffffffffffffffffffffffffffffffffffffff1673ffffffffffffffffffffffffffffffffffffffff1614620010b657600260009054906101000a900473ffffffffffffffffffffffffffffffffffffffff1673ffffffffffffffffffffffffffffffffffffffff166338cc48316040518163ffffffff1660e01b8152600401602060405180830381600087803b1580156200103857600080fd5b505af11580156200104d573d6000803e3d6000fd5b505050506040513d60208110156200106457600080fd5b8101908080519060200190929190505050600160006101000a81548173ffffffffffffffffffffffffffffffffffffffff021916908373ffffffffffffffffffffffffffffffffffffffff1602179055505b6000600160009054906101000a900473ffffffffffffffffffffffffffffffffffffffff1673ffffffffffffffffffffffffffffffffffffffff16632ef3accc86856040518363ffffffff1660e01b81526004018080602001838152602001828103825284818151815260200191508051906020019080838360005b838110156200114f57808201518184015260208101905062001132565b50505050905090810190601f1680156200117d5780820380516001836020036101000a031916815260200191505b509350505050602060405180830381600087803b1580156200119e57600080fd5b505af1158015620011b3573d6000803e3d6000fd5b505050506040513d6020811015620011ca57600080fd5b81019080805190602001909291905050509050823a02670de0b6b3a764000001811115620011ff576000801b915050620013b6565b606062001212856200198c60201b60201c565b9050600160009054906101000a900473ffffffffffffffffffffffffffffffffffffffff1673ffffffffffffffffffffffffffffffffffffffff1663c55c1cb68360008985896040518663ffffffff1660e01b8152600401808581526020018060200180602001848152602001838103835286818151815260200191508051906020019080838360005b83811015620012b95780820151818401526020810190506200129c565b50505050905090810190601f168015620012e75780820380516001836020036101000a031916815260200191505b50838103825285818151815260200191508051906020019080838360005b838110156200132257808201518184015260208101905062001305565b50505050905090810190601f168015620013505780820380516001836020036101000a031916815260200191505b5096505050505050506020604051808303818588803b1580156200137357600080fd5b505af115801562001388573d6000803e3d6000fd5b50505050506040513d6020811015620013a057600080fd5b8101908080519060200190929190505050925050505b9392505050565b600080620013e5731d3b2638a7cc9f2cb3d298a3da7a90b67e5506ed62000e0160201b60201c565b11156200149157731d3b2638a7cc9f2cb3d298a3da7a90b67e5506ed600260006101000a81548173ffffffffffffffffffffffffffffffffffffffff021916908373ffffffffffffffffffffffffffffffffffffffff160217905550620014876040518060400160405280600b81526020017f6574685f6d61696e6e657400000000000000000000000000000000000000000081525062001a4760201b60201c565b6001905062001989565b6000620014b873c03a2615d5efaf5f49f60b7bb6583eaec212fdf162000e0160201b60201c565b1115620015645773c03a2615d5efaf5f49f60b7bb6583eaec212fdf1600260006101000a81548173ffffffffffffffffffffffffffffffffffffffff021916908373ffffffffffffffffffffffffffffffffffffffff1602179055506200155a6040518060400160405280600c81526020017f6574685f726f707374656e33000000000000000000000000000000000000000081525062001a4760201b60201c565b6001905062001989565b60006200158b73b7a07bcf2ba2f2703b24c0691b5278999c59ac7e62000e0160201b60201c565b1115620016375773b7a07bcf2ba2f2703b24c0691b5278999c59ac7e600260006101000a81548173ffffffffffffffffffffffffffffffffffffffff021916908373ffffffffffffffffffffffffffffffffffffffff1602179055506200162d6040518060400160405280600981526020017f6574685f6b6f76616e000000000000000000000000000000000000000000000081525062001a4760201b60201c565b6001905062001989565b60006200165e73146500cfd35b22e4a392fe0adc06de1a1368ed4862000e0160201b60201c565b11156200170a5773146500cfd35b22e4a392fe0adc06de1a1368ed48600260006101000a81548173ffffffffffffffffffffffffffffffffffffffff021916908373ffffffffffffffffffffffffffffffffffffffff160217905550620017006040518060400160405280600b81526020017f6574685f72696e6b65627900000000000000000000000000000000000000000081525062001a4760201b60201c565b6001905062001989565b60006200173173a2998efd205fb9d4b4963afb70778d6354ad3a4162000e0160201b60201c565b1115620017dd5773a2998efd205fb9d4b4963afb70778d6354ad3a41600260006101000a81548173ffffffffffffffffffffffffffffffffffffffff021916908373ffffffffffffffffffffffffffffffffffffffff160217905550620017d36040518060400160405280600a81526020017f6574685f676f65726c690000000000000000000000000000000000000000000081525062001a4760201b60201c565b6001905062001989565b600062001804736f485c8bf6fc43ea212e93bbf8ce046c7f1cb47562000e0160201b60201c565b11156200186a57736f485c8bf6fc43ea212e93bbf8ce046c7f1cb475600260006101000a81548173ffffffffffffffffffffffffffffffffffffffff021916908373ffffffffffffffffffffffffffffffffffffffff1602179055506001905062001989565b6000620018917320e12a1f859b3feae5fb2a0a32c18f5a65555bbf62000e0160201b60201c565b1115620018f7577320e12a1f859b3feae5fb2a0a32c18f5a65555bbf600260006101000a81548173ffffffffffffffffffffffffffffffffffffffff021916908373ffffffffffffffffffffffffffffffffffffffff1602179055506001905062001989565b60006200191e7351efaf4c8b3c9afbd5ab9f4bbc82784ab6ef8faa62000e0160201b60201c565b111562001984577351efaf4c8b3c9afbd5ab9f4bbc82784ab6ef8faa600260006101000a81548173ffffffffffffffffffffffffffffffffffffffff021916908373ffffffffffffffffffffffffffffffffffffffff1602179055506001905062001989565b600090505b90565b60606200199e62001a6360201b60201c565b620019a862001ec8565b620019c18161040062001a6f60201b620028211760201c565b620019d78162001abc60201b6200286b1760201c565b60008090505b835181101562001a235762001a15848281518110620019f857fe5b60200260200101518362001ad260201b620028791790919060201c565b8080600101915050620019dd565b5062001a3a8162001b0660201b6200289e1760201c565b8060000151915050919050565b806003908051906020019062001a5f92919062001ee2565b5050565b60405180590338823950565b600081905060006020828162001a8157fe5b061462001a9c576020818162001a9357fe5b06602003810190505b808360200181815250506040518084526000815281810160405250505050565b62001acf81600462001b1c60201b60201c565b50565b62001ae7826002835162001b4460201b60201c565b62001b01818362001ccc60201b62002a0d1790919060201c565b505050565b62001b1981600762001b1c60201b60201c565b50565b62001b40601f60058360ff16901b178362001d8c60201b62002ab81790919060201c565b5050565b6017811162001b795762001b738160058460ff16901b60ff16178462001d8c60201b62002ab81790919060201c565b62001cc7565b60ff811162001bca5762001ba6601860058460ff16901b178462001d8c60201b62002ab81790919060201c565b62001bc38160018562001dd560201b62002af8179092919060201c565b5062001cc6565b61ffff811162001c1c5762001bf8601960058460ff16901b178462001d8c60201b62002ab81790919060201c565b62001c158160028562001dd560201b62002af8179092919060201c565b5062001cc5565b63ffffffff811162001c705762001c4c601a60058460ff16901b178462001d8c60201b62002ab81790919060201c565b62001c698160048562001dd560201b62002af8179092919060201c565b5062001cc4565b67ffffffffffffffff811162001cc35762001ca4601b60058460ff16901b178462001d8c60201b62002ab81790919060201c565b62001cc18160088562001dd560201b62002af8179092919060201c565b505b5b5b5b5b505050565b62001cd662001ec8565b8260200151836000015151835101111562001d175762001d1683600262001d098660200151865162001e4f60201b60201c565b0262001e6d60201b60201c565b5b60008060008451905085518051602081830101945086518101825260208701935050505b6020811062001d60578151835260208301925060208201915060208103905062001d3b565b60006001826020036101000a039050801983511681855116818117865250508694505050505092915050565b8160200151600183600001515101111562001dbb5762001dba82600284602001510262001e6d60201b60201c565b5b815180516020818301018381536001820183525050505050565b62001ddf62001ec8565b83602001518460000151518301111562001e1e5762001e1d84600262001e1087602001518662001e4f60201b60201c565b0262001e6d60201b60201c565b5b60006001836101000a0390508451805184818301018684198251161781528582018352505050849150509392505050565b60008183111562001e635782905062001e67565b8190505b92915050565b60608260000151905062001e88838362001a6f60201b60201c565b62001e9a838262001ccc60201b60201c565b50505050565b60405180608001604052806004905b606081526020019060019003908162001eaf5790505090565b604051806040016040528060608152602001600081525090565b828054600181600116156101000203166002900490600052602060002090601f016020900481019282601f1062001f2557805160ff191683800117855562001f56565b8280016001018555821562001f56579182015b8281111562001f5557825182559160200191906001019062001f38565b5b50905062001f65919062001f69565b5090565b62001f8e91905b8082111562001f8a57600081600090555060010162001f70565b5090565b90565b612d268062001fa16000396000f3fe6080604052600436106100c25760003560e01c80638da5cb5b1161007f578063b766561311610059578063b76656131461046c578063d0e30db0146104d5578063dc34b0aa146104df578063e3d670d71461050a576100c2565b80638da5cb5b146103a6578063a2e62045146103fd578063b01df39114610407576100c2565b806327dc297e146100c757806338bbfa50146101995780633ccfd60b1461030257806343d726d61461030c578063477348921461032357806386da69f014610388575b600080fd5b3480156100d357600080fd5b50610197600480360360408110156100ea57600080fd5b81019080803590602001909291908035906020019064010000000081111561011157600080fd5b82018360208201111561012357600080fd5b8035906020019184600183028401116401000000008311171561014557600080fd5b91908080601f016020809104026020016040519081016040528093929190818152602001838380828437600081840152601f19601f82011690508083019250505050505050919291929050505061056f565b005b3480156101a557600080fd5b50610300600480360360608110156101bc57600080fd5b8101908080359060200190929190803590602001906401000000008111156101e357600080fd5b8201836020820111156101f557600080fd5b8035906020019184600183028401116401000000008311171561021757600080fd5b91908080601f016020809104026020016040519081016040528093929190818152602001838380828437600081840152601f19601f8201169050808301925050505050505091929192908035906020019064010000000081111561027a57600080fd5b82018360208201111561028c57600080fd5b803590602001918460018302840111640100000000831117156102ae57600080fd5b91908080601f016020809104026020016040519081016040528093929190818152602001838380828437600081840152601f19601f8201169050808301925050505050505091929192905050506105b2565b005b61030a6106b8565b005b34801561031857600080fd5b50610321610754565b005b34801561032f57600080fd5b506103726004803603602081101561034657600080fd5b81019080803573ffffffffffffffffffffffffffffffffffffffff16906020019092919050505061080d565b6040518082815260200191505060405180910390f35b610390610856565b6040518082815260200191505060405180910390f35b3480156103b257600080fd5b506103bb610b6d565b604051808273ffffffffffffffffffffffffffffffffffffffff1673ffffffffffffffffffffffffffffffffffffffff16815260200191505060405180910390f35b610405610b92565b005b34801561041357600080fd5b506104566004803603602081101561042a57600080fd5b81019080803573ffffffffffffffffffffffffffffffffffffffff169060200190929190505050610bfb565b6040518082815260200191505060405180910390f35b34801561047857600080fd5b506104bb6004803603602081101561048f57600080fd5b81019080803573ffffffffffffffffffffffffffffffffffffffff169060200190929190505050610c4e565b604051808215151515815260200191505060405180910390f35b6104dd610c6e565b005b3480156104eb57600080fd5b506104f4610cbd565b6040518082815260200191505060405180910390f35b34801561051657600080fd5b506105596004803603602081101561052d57600080fd5b81019080803573ffffffffffffffffffffffffffffffffffffffff169060200190929190505050610cc3565b6040518082815260200191505060405180910390f35b6105ae828260006040519080825280601f01601f1916602001820160405280156105a85781602001600182028038833980820191505090505b506105b2565b5050565b6105ba610cdb565b73ffffffffffffffffffffffffffffffffffffffff163373ffffffffffffffffffffffffffffffffffffffff16146105f157600080fd5b6000826040516020018082805190602001908083835b6020831061062a5780518252602082019150602081019050602083039250610607565b6001836020036101000a0380198251168184511680821785525050505050509050019150506040516020818303038152906040528051906020012060001c90506002818161067457fe5b066006819055507fc13d60fe9dffdb6908d2d446cd18134373a51db0738ee04f296eeb9128121cbc816040518082815260200191505060405180910390a150505050565b60006106c33361080d565b90506000600860003373ffffffffffffffffffffffffffffffffffffffff1673ffffffffffffffffffffffffffffffffffffffff168152602001908152602001600020819055503373ffffffffffffffffffffffffffffffffffffffff166108fc829081150290604051600060405180830381858888f19350505050158015610750573d6000803e3d6000fd5b5050565b6000809054906101000a900473ffffffffffffffffffffffffffffffffffffffff1673ffffffffffffffffffffffffffffffffffffffff163373ffffffffffffffffffffffffffffffffffffffff16146107ad57600080fd5b3373ffffffffffffffffffffffffffffffffffffffff166108fc479081150290604051600060405180830381858888f193505050501580156107f3573d6000803e3d6000fd5b503373ffffffffffffffffffffffffffffffffffffffff16ff5b6000600860008373ffffffffffffffffffffffffffffffffffffffff1673ffffffffffffffffffffffffffffffffffffffff168152602001908152602001600020549050919050565b600061086133610bfb565b803410156108d7576040517f08c379a00000000000000000000000000000000000000000000000000000000081526004018080602001828103825260128152602001807f56616c756520696e73756666696369656e74000000000000000000000000000081525060200191505060405180910390fd5b47341115610930576040517f08c379a000000000000000000000000000000000000000000000000000000000815260040180806020018281038252603a815260200180612cb7603a913960400191505060405180910390fd5b6000339050600760008273ffffffffffffffffffffffffffffffffffffffff1673ffffffffffffffffffffffffffffffffffffffff16815260200190815260200160002060009054906101000a900460ff16610b63576001600760008373ffffffffffffffffffffffffffffffffffffffff1673ffffffffffffffffffffffffffffffffffffffff16815260200190815260200160002060006101000a81548160ff0219169083151502179055506109e6610b92565b600060065490507ffa2a99928eb1170d3fd43cae98eab031fed6647e80297642ba4bcf85eb54ea358282604051808373ffffffffffffffffffffffffffffffffffffffff1673ffffffffffffffffffffffffffffffffffffffff1681526020018281526020019250505060405180910390a16000811415610ab35734600860008473ffffffffffffffffffffffffffffffffffffffff1673ffffffffffffffffffffffffffffffffffffffff16815260200190815260200160002060008282540392505081905550610b01565b34600860008473ffffffffffffffffffffffffffffffffffffffff1673ffffffffffffffffffffffffffffffffffffffff168152602001908152602001600020600082825401925050819055505b6000600760008473ffffffffffffffffffffffffffffffffffffffff1673ffffffffffffffffffffffffffffffffffffffff16815260200190815260200160002060006101000a81548160ff0219169083151502179055508093505050610b69565b60029250505b5090565b6000809054906101000a900473ffffffffffffffffffffffffffffffffffffffff1681565b6000809050600062030d409050610bab82600183610ffd565b507fc4dc360d0a9c0677a3379ae0a3d81e887f761e65fdf3d7e00859d1bcd3c47389604051808060200182810382526032815260200180612c856032913960400191505060405180910390a15050565b60006002600860008473ffffffffffffffffffffffffffffffffffffffff1673ffffffffffffffffffffffffffffffffffffffff1681526020019081526020016000205481610c4657fe5b049050919050565b60076020528060005260406000206000915054906101000a900460ff1681565b34600860003373ffffffffffffffffffffffffffffffffffffffff1673ffffffffffffffffffffffffffffffffffffffff16815260200190815260200160002060008282540192505081905550565b60065481565b60086020528060005260406000206000915090505481565b60008073ffffffffffffffffffffffffffffffffffffffff16600260009054906101000a900473ffffffffffffffffffffffffffffffffffffffff1673ffffffffffffffffffffffffffffffffffffffff161480610d6357506000610d61600260009054906101000a900473ffffffffffffffffffffffffffffffffffffffff16611598565b145b15610d7457610d7260006115a3565b505b600260009054906101000a900473ffffffffffffffffffffffffffffffffffffffff1673ffffffffffffffffffffffffffffffffffffffff166338cc48316040518163ffffffff1660e01b8152600401602060405180830381600087803b158015610dde57600080fd5b505af1158015610df2573d6000803e3d6000fd5b505050506040513d6020811015610e0857600080fd5b810190808051906020019092919050505073ffffffffffffffffffffffffffffffffffffffff16600160009054906101000a900473ffffffffffffffffffffffffffffffffffffffff1673ffffffffffffffffffffffffffffffffffffffff1614610f5357600260009054906101000a900473ffffffffffffffffffffffffffffffffffffffff1673ffffffffffffffffffffffffffffffffffffffff166338cc48316040518163ffffffff1660e01b8152600401602060405180830381600087803b158015610ed757600080fd5b505af1158015610eeb573d6000803e3d6000fd5b505050506040513d6020811015610f0157600080fd5b8101908080519060200190929190505050600160006101000a81548173ffffffffffffffffffffffffffffffffffffffff021916908373ffffffffffffffffffffffffffffffffffffffff1602179055505b600160009054906101000a900473ffffffffffffffffffffffffffffffffffffffff1673ffffffffffffffffffffffffffffffffffffffff1663c281d19e6040518163ffffffff1660e01b8152600401602060405180830381600087803b158015610fbd57600080fd5b505af1158015610fd1573d6000803e3d6000fd5b505050506040513d6020811015610fe757600080fd5b8101908080519060200190929190505050905090565b6000808311801561100f575060208311155b61101857600080fd5b600a84029350606060016040519080825280601f01601f1916602001820160405280156110545781602001600182028038833980820191505090505b5090508360f81b8160008151811061106857fe5b60200101907effffffffffffffffffffffffffffffffffffffffffffffffffffffffffffff1916908160001a905350606060206040519080825280601f01601f1916602001820160405280156110cd5781602001600182028038833980820191505090505b509050606060206040519080825280601f01601f1916602001820160405280156111065781602001600182028038833980820191505090505b50905060006111136115b4565b905060208352424118600143034018602084015260208252806020830152606060206040519080825280601f01601f1916602001820160405280156111675781602001600182028038833980820191505090505b509050886020820152606060086040519080825280601f01601f1916602001820160405280156111a65781602001600182028038833980820191505090505b5090506111b982601860088460006118d4565b506111c2612b9e565b604051806080016040528087815260200188815260200186815260200184815250905060006112276040518060400160405280600681526020017f72616e646f6d0000000000000000000000000000000000000000000000000000815250838c611933565b9050606060086040519080825280601f01601f19166020018201604052801561125f5781602001600182028038833980820191505090505b50905060208401517f0100000000000000000000000000000000000000000000000000000000000000810460278301537e01000000000000000000000000000000000000000000000000000000000000810460268301537d010000000000000000000000000000000000000000000000000000000000810460258301537c0100000000000000000000000000000000000000000000000000000000810460248301537b01000000000000000000000000000000000000000000000000000000810460238301537a01000000000000000000000000000000000000000000000000000081046022830153790100000000000000000000000000000000000000000000000000810460218301537801000000000000000000000000000000000000000000000000810460208301535061158582828560016004811061139e57fe5b60200201516002876000600481106113b257fe5b60200201516040518082805190602001908083835b602083106113ea57805182526020820191506020810190506020830392506113c7565b6001836020036101000a038019825116818451168082178552505050505050905001915050602060405180830381855afa15801561142c573d6000803e3d6000fd5b5050506040513d602081101561144157600080fd5b81019080805190602001909291905050508760026004811061145f57fe5b60200201516040516020018085805190602001908083835b6020831061149a5780518252602082019150602081019050602083039250611477565b6001836020036101000a03801982511681845116808217855250505050505090500184805190602001908083835b602083106114eb57805182526020820191506020810190506020830392506114c8565b6001836020036101000a03801982511681845116808217855250505050505090500183815260200182805190602001908083835b60208310611542578051825260208201915060208101905060208303925061151f565b6001836020036101000a03801982511681845116808217855250505050505090500194505050505060405160208183030381529060405280519060200120611ca2565b8199505050505050505050509392505050565b6000813b9050919050565b60006115ad611cbe565b9050919050565b60008073ffffffffffffffffffffffffffffffffffffffff16600260009054906101000a900473ffffffffffffffffffffffffffffffffffffffff1673ffffffffffffffffffffffffffffffffffffffff16148061163c5750600061163a600260009054906101000a900473ffffffffffffffffffffffffffffffffffffffff16611598565b145b1561164d5761164b60006115a3565b505b600260009054906101000a900473ffffffffffffffffffffffffffffffffffffffff1673ffffffffffffffffffffffffffffffffffffffff166338cc48316040518163ffffffff1660e01b8152600401602060405180830381600087803b1580156116b757600080fd5b505af11580156116cb573d6000803e3d6000fd5b505050506040513d60208110156116e157600080fd5b810190808051906020019092919050505073ffffffffffffffffffffffffffffffffffffffff16600160009054906101000a900473ffffffffffffffffffffffffffffffffffffffff1673ffffffffffffffffffffffffffffffffffffffff161461182c57600260009054906101000a900473ffffffffffffffffffffffffffffffffffffffff1673ffffffffffffffffffffffffffffffffffffffff166338cc48316040518163ffffffff1660e01b8152600401602060405180830381600087803b1580156117b057600080fd5b505af11580156117c4573d6000803e3d6000fd5b505050506040513d60208110156117da57600080fd5b8101908080519060200190929190505050600160006101000a81548173ffffffffffffffffffffffffffffffffffffffff021916908373ffffffffffffffffffffffffffffffffffffffff1602179055505b600160009054906101000a900473ffffffffffffffffffffffffffffffffffffffff1673ffffffffffffffffffffffffffffffffffffffff1663abaa5f3e6040518163ffffffff1660e01b815260040160206040518083038186803b15801561189457600080fd5b505afa1580156118a8573d6000803e3d6000fd5b505050506040513d60208110156118be57600080fd5b8101908080519060200190929190505050905090565b60606000828501905080845110156118eb57600080fd5b600086602001905060008460200190505b86886020010182101561192457818901518082880152506020820191506020810190506118fc565b85935050505095945050505050565b60008073ffffffffffffffffffffffffffffffffffffffff16600260009054906101000a900473ffffffffffffffffffffffffffffffffffffffff1673ffffffffffffffffffffffffffffffffffffffff1614806119bb575060006119b9600260009054906101000a900473ffffffffffffffffffffffffffffffffffffffff16611598565b145b156119cc576119ca60006115a3565b505b600260009054906101000a900473ffffffffffffffffffffffffffffffffffffffff1673ffffffffffffffffffffffffffffffffffffffff166338cc48316040518163ffffffff1660e01b8152600401602060405180830381600087803b158015611a3657600080fd5b505af1158015611a4a573d6000803e3d6000fd5b505050506040513d6020811015611a6057600080fd5b810190808051906020019092919050505073ffffffffffffffffffffffffffffffffffffffff16600160009054906101000a900473ffffffffffffffffffffffffffffffffffffffff1673ffffffffffffffffffffffffffffffffffffffff1614611bab57600260009054906101000a900473ffffffffffffffffffffffffffffffffffffffff1673ffffffffffffffffffffffffffffffffffffffff166338cc48316040518163ffffffff1660e01b8152600401602060405180830381600087803b158015611b2f57600080fd5b505af1158015611b43573d6000803e3d6000fd5b505050506040513d6020811015611b5957600080fd5b8101908080519060200190929190505050600160006101000a81548173ffffffffffffffffffffffffffffffffffffffff021916908373ffffffffffffffffffffffffffffffffffffffff1602179055505b60606004604051908082528060200260200182016040528015611be257816020015b6060815260200190600190039081611bcd5790505b50905083600060048110611bf257fe5b602002015181600081518110611c0457fe5b602002602001018190525083600160048110611c1c57fe5b602002015181600181518110611c2e57fe5b602002602001018190525083600260048110611c4657fe5b602002015181600281518110611c5857fe5b602002602001018190525083600360048110611c7057fe5b602002015181600381518110611c8257fe5b6020026020010181905250611c98858285612215565b9150509392505050565b8060046000848152602001908152602001600020819055505050565b600080611cde731d3b2638a7cc9f2cb3d298a3da7a90b67e5506ed611598565b1115611d8057731d3b2638a7cc9f2cb3d298a3da7a90b67e5506ed600260006101000a81548173ffffffffffffffffffffffffffffffffffffffff021916908373ffffffffffffffffffffffffffffffffffffffff160217905550611d776040518060400160405280600b81526020017f6574685f6d61696e6e657400000000000000000000000000000000000000000081525061277b565b60019050612212565b6000611d9f73c03a2615d5efaf5f49f60b7bb6583eaec212fdf1611598565b1115611e415773c03a2615d5efaf5f49f60b7bb6583eaec212fdf1600260006101000a81548173ffffffffffffffffffffffffffffffffffffffff021916908373ffffffffffffffffffffffffffffffffffffffff160217905550611e386040518060400160405280600c81526020017f6574685f726f707374656e33000000000000000000000000000000000000000081525061277b565b60019050612212565b6000611e6073b7a07bcf2ba2f2703b24c0691b5278999c59ac7e611598565b1115611f025773b7a07bcf2ba2f2703b24c0691b5278999c59ac7e600260006101000a81548173ffffffffffffffffffffffffffffffffffffffff021916908373ffffffffffffffffffffffffffffffffffffffff160217905550611ef96040518060400160405280600981526020017f6574685f6b6f76616e000000000000000000000000000000000000000000000081525061277b565b60019050612212565b6000611f2173146500cfd35b22e4a392fe0adc06de1a1368ed48611598565b1115611fc35773146500cfd35b22e4a392fe0adc06de1a1368ed48600260006101000a81548173ffffffffffffffffffffffffffffffffffffffff021916908373ffffffffffffffffffffffffffffffffffffffff160217905550611fba6040518060400160405280600b81526020017f6574685f72696e6b65627900000000000000000000000000000000000000000081525061277b565b60019050612212565b6000611fe273a2998efd205fb9d4b4963afb70778d6354ad3a41611598565b11156120845773a2998efd205fb9d4b4963afb70778d6354ad3a41600260006101000a81548173ffffffffffffffffffffffffffffffffffffffff021916908373ffffffffffffffffffffffffffffffffffffffff16021790555061207b6040518060400160405280600a81526020017f6574685f676f65726c690000000000000000000000000000000000000000000081525061277b565b60019050612212565b60006120a3736f485c8bf6fc43ea212e93bbf8ce046c7f1cb475611598565b111561210757736f485c8bf6fc43ea212e93bbf8ce046c7f1cb475600260006101000a81548173ffffffffffffffffffffffffffffffffffffffff021916908373ffffffffffffffffffffffffffffffffffffffff16021790555060019050612212565b60006121267320e12a1f859b3feae5fb2a0a32c18f5a65555bbf611598565b111561218a577320e12a1f859b3feae5fb2a0a32c18f5a65555bbf600260006101000a81548173ffffffffffffffffffffffffffffffffffffffff021916908373ffffffffffffffffffffffffffffffffffffffff16021790555060019050612212565b60006121a97351efaf4c8b3c9afbd5ab9f4bbc82784ab6ef8faa611598565b111561220d577351efaf4c8b3c9afbd5ab9f4bbc82784ab6ef8faa600260006101000a81548173ffffffffffffffffffffffffffffffffffffffff021916908373ffffffffffffffffffffffffffffffffffffffff16021790555060019050612212565b600090505b90565b60008073ffffffffffffffffffffffffffffffffffffffff16600260009054906101000a900473ffffffffffffffffffffffffffffffffffffffff1673ffffffffffffffffffffffffffffffffffffffff16148061229d5750600061229b600260009054906101000a900473ffffffffffffffffffffffffffffffffffffffff16611598565b145b156122ae576122ac60006115a3565b505b600260009054906101000a900473ffffffffffffffffffffffffffffffffffffffff1673ffffffffffffffffffffffffffffffffffffffff166338cc48316040518163ffffffff1660e01b8152600401602060405180830381600087803b15801561231857600080fd5b505af115801561232c573d6000803e3d6000fd5b505050506040513d602081101561234257600080fd5b810190808051906020019092919050505073ffffffffffffffffffffffffffffffffffffffff16600160009054906101000a900473ffffffffffffffffffffffffffffffffffffffff1673ffffffffffffffffffffffffffffffffffffffff161461248d57600260009054906101000a900473ffffffffffffffffffffffffffffffffffffffff1673ffffffffffffffffffffffffffffffffffffffff166338cc48316040518163ffffffff1660e01b8152600401602060405180830381600087803b15801561241157600080fd5b505af1158015612425573d6000803e3d6000fd5b505050506040513d602081101561243b57600080fd5b8101908080519060200190929190505050600160006101000a81548173ffffffffffffffffffffffffffffffffffffffff021916908373ffffffffffffffffffffffffffffffffffffffff1602179055505b6000600160009054906101000a900473ffffffffffffffffffffffffffffffffffffffff1673ffffffffffffffffffffffffffffffffffffffff16632ef3accc86856040518363ffffffff1660e01b81526004018080602001838152602001828103825284818151815260200191508051906020019080838360005b83811015612524578082015181840152602081019050612509565b50505050905090810190601f1680156125515780820380516001836020036101000a031916815260200191505b509350505050602060405180830381600087803b15801561257157600080fd5b505af1158015612585573d6000803e3d6000fd5b505050506040513d602081101561259b57600080fd5b81019080805190602001909291905050509050823a02670de0b6b3a7640000018111156125ce576000801b915050612774565b60606125d985612795565b9050600160009054906101000a900473ffffffffffffffffffffffffffffffffffffffff1673ffffffffffffffffffffffffffffffffffffffff1663c55c1cb68360008985896040518663ffffffff1660e01b8152600401808581526020018060200180602001848152602001838103835286818151815260200191508051906020019080838360005b8381101561267e578082015181840152602081019050612663565b50505050905090810190601f1680156126ab5780820380516001836020036101000a031916815260200191505b50838103825285818151815260200191508051906020019080838360005b838110156126e45780820151818401526020810190506126c9565b50505050905090810190601f1680156127115780820380516001836020036101000a031916815260200191505b5096505050505050506020604051808303818588803b15801561273357600080fd5b505af1158015612747573d6000803e3d6000fd5b50505050506040513d602081101561275e57600080fd5b8101908080519060200190929190505050925050505b9392505050565b8060039080519060200190612791929190612bc5565b5050565b606061279f612815565b6127a7612c45565b6127b381610400612821565b6127bc8161286b565b60008090505b83518110156127fe576127f18482815181106127da57fe5b60200260200101518361287990919063ffffffff16565b80806001019150506127c2565b506128088161289e565b8060000151915050919050565b60405180590338823950565b600081905060006020828161283257fe5b061461284b576020818161284257fe5b06602003810190505b808360200181815250506040518084526000815281810160405250505050565b6128768160046128ac565b50565b61288682600283516128cd565b6128998183612a0d90919063ffffffff16565b505050565b6128a98160076128ac565b50565b6128c9601f60058360ff16901b1783612ab890919063ffffffff16565b5050565b601781116128f9576128f48160058460ff16901b60ff161784612ab890919063ffffffff16565b612a08565b60ff811161293a5761291e601860058460ff16901b1784612ab890919063ffffffff16565b61293481600185612af89092919063ffffffff16565b50612a07565b61ffff811161297c57612960601960058460ff16901b1784612ab890919063ffffffff16565b61297681600285612af89092919063ffffffff16565b50612a06565b63ffffffff81116129c0576129a4601a60058460ff16901b1784612ab890919063ffffffff16565b6129ba81600485612af89092919063ffffffff16565b50612a05565b67ffffffffffffffff8111612a04576129ec601b60058460ff16901b1784612ab890919063ffffffff16565b612a0281600885612af89092919063ffffffff16565b505b5b5b5b5b505050565b612a15612c45565b82602001518360000151518351011115612a4557612a44836002612a3e86602001518651612b5f565b02612b7b565b5b60008060008451905085518051602081830101945086518101825260208701935050505b60208110612a8c5781518352602083019250602082019150602081039050612a69565b60006001826020036101000a039050801983511681855116818117865250508694505050505092915050565b81602001516001836000015151011115612ade57612add826002846020015102612b7b565b5b815180516020818301018381536001820183525050505050565b612b00612c45565b836020015184600001515183011115612b2e57612b2d846002612b27876020015186612b5f565b02612b7b565b5b60006001836101000a0390508451805184818301018684198251161781528582018352505050849150509392505050565b600081831115612b7157829050612b75565b8190505b92915050565b606082600001519050612b8e8383612821565b612b988382612a0d565b50505050565b60405180608001604052806004905b6060815260200190600190039081612bad5790505090565b828054600181600116156101000203166002900490600052602060002090601f016020900481019282601f10612c0657805160ff1916838001178555612c34565b82800160010185558215612c34579182015b82811115612c33578251825591602001919060010190612c18565b5b509050612c419190612c5f565b5090565b604051806040016040528060608152602001600081525090565b612c8191905b80821115612c7d576000816000905550600101612c65565b5090565b9056fe50726f7661626c65207175657279207761732073656e742c207374616e64696e6720627920666f7220616e737765722e2e2e436f6e747261637420646f65736e74206861766520656e6f7567682066756e647320746f20706179206f757420706f74656e7469616c2077696ea26469706673582212205531959c28fbb07e2149288914c188b40c4e9f981a36b8f81b1abbb9ceca529164736f6c6343000602003350726f7661626c65207175657279207761732073656e742c207374616e64696e6720627920666f7220616e737765722e2e2e",
  "source": "import \"./Ownable.sol\";\r\nimport \"./ProvableAPI.sol\";\r\n\r\npragma solidity 0.6.2;\r\n\r\ncontract Coinflip is Ownable, usingProvable {\r\n\r\n  uint256 constant NUM_RANDOM_BYTES_REQUESTED = 1;\r\n  uint256 public latestNumber;\r\n\r\n  event coinFlipped(address sender, uint result);\r\n  event LogNewProvableQuery(string description);\r\n  event generatedRandomNumber(uint256 randomNumber);\r\n\r\n  mapping(address => bool) public isPlaying;\r\n  mapping(address => uint) public balance;\r\n\r\n  modifier costs(uint cost){\r\n      require(msg.value >= cost, \"Value insufficient\");\r\n      _;\r\n  }\r\n\r\n  constructor() public{\r\n      update();\r\n  }\r\n\r\n  function maxCost(address _address)\r\n  public\r\n  view\r\n  returns(uint)\r\n  {\r\n    return balance[_address] / 2 ;\r\n  }\r\n\r\n  function __callback(bytes32 _queryID, string memory _result, bytes memory _proof)\r\n  public\r\n  override\r\n  {\r\n      require(msg.sender == provable_cbAddress());\r\n      uint256 randomNumber = uint256(keccak256(abi.encodePacked(_result)));\r\n      latestNumber = randomNumber % 2;\r\n      emit generatedRandomNumber(randomNumber);\r\n  }\r\n\r\n  function update()\r\n  payable\r\n  public\r\n  {\r\n      uint256 QUERY_EXECUTION_DELAY = 0;\r\n      uint256 GAS_FOR_CALLBACK = 200000;\r\n      provable_newRandomDSQuery(QUERY_EXECUTION_DELAY, NUM_RANDOM_BYTES_REQUESTED, GAS_FOR_CALLBACK);\r\n      emit LogNewProvableQuery(\"Provable query was sent, standing by for answer...\");\r\n  }\r\n\r\n  function gamble()\r\n  public\r\n  payable\r\n  costs(maxCost(msg.sender))\r\n  returns(uint)\r\n  {\r\n    require(msg.value <= address(this).balance, \"Contract doesnt have enough funds to pay out potential win\");\r\n    address player = msg.sender;\r\n    if(!isPlaying[player])\r\n    {\r\n      isPlaying[player] = true;\r\n      update();\r\n      uint result = latestNumber;\r\n      emit coinFlipped(player, result);\r\n      if(result == 0){\r\n          balance[player] -= msg.value;\r\n      } else {\r\n         balance[player] += msg.value;\r\n      }\r\n      isPlaying[player] = false;\r\n      return result;\r\n    }\r\n    else {\r\n      return 2;\r\n    }\r\n  }\r\n\r\n  function withdraw()\r\n  public\r\n  payable\r\n  {\r\n    uint toTransfer = getUserBalance(msg.sender);\r\n    balance[msg.sender] = 0;\r\n    msg.sender.transfer(toTransfer);\r\n  }\r\n\r\n  function deposit()\r\n  public\r\n  payable\r\n  {\r\n    balance[msg.sender] += msg.value;\r\n  }\r\n\r\n  function getUserBalance(address _address)\r\n  public\r\n  view\r\n  returns(uint)\r\n  {\r\n    return balance[_address];\r\n  }\r\n\r\n  function close() public onlyOwner {\r\n      msg.sender.transfer(address(this).balance);\r\n      selfdestruct(msg.sender);\r\n  }\r\n\r\n}\r\n",
  "sourcePath": "C:/GitHub/ethereum-cource-advanced/eth201-phase2/contracts/Coinflip.sol",
  "compiler": {
    "name": "solc",
    "version": "0.6.2+commit.bacdbe57.Emscripten.clang"
  },
  "schemaVersion": "3.3.3",
  "updatedAt": "2021-01-12T15:04:25.500Z",
  "networkType": "ethereum",
  "devdoc": {
    "methods": {
      "__callback(bytes32,string)": {
        "details": "The following `__callback` functions are just placeholders ideally     meant to be defined in child contract when proofs are used.     The function bodies simply silence compiler warnings."
      }
    }
  },
  "userdoc": {
    "methods": {}
  }
}